:020000003E2F91
:100E7C008301BB2F831603130515243096006300E2
:100E8C005030F4000030F50092270800F7000310F2
:100E9C00003003180130F800622F831203138714FB
:100EAC000530F4000030F500692783120313871016
:100EBC000130F6007608F80777087802031C672FD4
:100ECC00682F532F08000030F0000030F100872FFE
:100EDC000030F2000030F3000130F2070318F30A7F
:100EEC000030F30703307302E83003197202031C5D
:100EFC00802F812F722F0130F0070318F10A003078
:100F0C00F10775087102031D8D2F74087002031C04
:100F1C00902F912F6E2F08000030F0000030F10060
:100F2C00B02F0030F2000030F3000130F20703184C
:100F3C00F30A0030F30700307302323003197202E7
:100F4C00031CA92FAA2F9B2F0130F0070318F10ABD
:100F5C000030F10775087102031DB62F740870027A
:100F6C00031CB92FBA2F972F080003100030031859
:100F7C000130831203179E00031000300318013058
:100F8C009F00831603138710071387130616861604
:100F9C008312031387108B158312031716168312F3
:100FAC0003138B17402702304C27831203130713AC
:100FBC0087171430F4000030F500692783120313EF
:100FCC00071387130530F4000030F50069278312EE
:100FDC000313071787131430F4000030F50069274A
:100FEC0083120313071787170530F4000030F50040
:040FFC006927002839
:00000001FF
