:040000008A11722EC1
:100C0000FE00FE1F082E83137E18831700080800BD
:100C10000408FE0006308A007E08820700344C3447
:100C200043344434203469347334203452346534CA
:100C3000613464347934003483120313A000200833
:100C400099000C1E242E252E212EC0308A114526F7
:100C50008A110A308A115E278A1183120313200831
:100C60008A1155268A11080001308A1145268A11F9
:100C700001308A115E278A1102308A1145268A11B5
:100C800001308A115E278A110800F70083120313CE
:100C90000612861277088700061701308A115E2730
:100CA0008A118312031306130800F700831203133B
:100CB000061686120617770887000A308A115E2703
:100CC0008A118312031306130800831203131816E4
:100CD0008C1E6B2E6C2E682E1A08F0008C121812C7
:0E0CE00070080800F901FA0183018A118B2FB8
:100E04000310003003180130831203179E000310EF
:100E14000030031801309F007730831603138F00CE
:100E2400181218159B151030990083120313981784
:100E340083160313981608008312031306128612EE
:100E4400061338308A1145268A1101308A115E272B
:100E54008A110C308A1145268A1101308A115E27C5
:100E64008A118A1134268A1101308A115E278A1167
:100E7400080083120313A0000030A1000030A20078
:100E8400532F200821078A1109268A118A11552611
:100E94008A11013083120313A1070318A20A003038
:100EA400A207200821078A1109268A110038031D88
:100EB4005C2F5D2F432F0800F2000030F300003058
:100EC400F4007D2F0030F5000030F6000130F50706
:100ED4000318F60A0030F60703307602E8300319E7
:100EE4007502031C762F772F682F0130F307031840
:100EF400F40A0030F4077208F000F101710874027A
:100F0400031D862F70087302031C892F8A2F642FF8
:100F140008000310003003180130831203179E00E9
:100F240003100030031801309F0003100030031831
:100F340001308316031385000310003003180130B9
:100F44008600031000300318013087008A111E2721
:100F54008A1180308A1145268A1105308A115E274C
:100F64008A1101308A113B278A1105308A115E27C4
:100F74008A11C0308A1145268A1105308A115E27EC
:100F84008A118A1102278A110310003003180130D4
:100F9400FA008A1165268A11F90079088A111C263B
:100FA4008A118A1134268A1180308A1145268A11C1
:100FB40005308A115E278A1179088A1155268A110B
:100FC40010307A02031CE72FE82FF42FC0308A1167
:100FD40045268A110A308A115E278A1179088A11F6
:100FE40055268A110130F8007808FA0721307A0270
:0C0FF400031CFD2FFE2FCB2F8A110028BC
:00000001FF
