:040000008A11112828
:10000800FF00030883120313B8000408B9000A08A4
:10001800BA007E08BB008A11A32C8A11E22C00309A
:10002800B6000030B7000030B4000030B500003032
:10003800B2000030B3000030AC000030AD0000303A
:10004800AE000030AF000630AC000030AD00043028
:10005800AE000030AF009630FA0083160313071184
:100068000310003003180130F7008A11D2248A11D6
:10007800831203130B178B172D08B101B1072C0836
:10008800B001B0073608013E8A1109238A11333AB4
:10009800031D4F28502866283608013E013E8A1164
:1000A80009238A11323A031D5A285B286628203012
:1000B800B4000030B5000230B6070318B70A0030A4
:1000C800B707E0283608013E8A1109238A11313A18
:1000D800031D6F28702886283608013E013E8A11C4
:1000E80009238A11363A031D7A287B28862810307E
:1000F800B4000030B5000230B6070318B70A003064
:10010800B707E0283608013E8A1109238A11383AD0
:10011800031D8F2890289B280830B4000030B500B4
:100128000130B6070318B70A0030B707E0283608C9
:10013800013E8A1109238A11343A031DA428A528EF
:10014800B0280430B4000030B5000130B6070318F9
:10015800B70A0030B707E0283608013E8A1109239C
:100168008A11323A031DB928BA28C5280230B400CA
:100178000030B5000130B6070318B70A0030B707DA
:10018800E0283608013E8A1109238A11313A031DF5
:10019800CE28CF28DA280130B4000030B50001306D
:1001A800B6070318B70A0030B707E0282F08B501CB
:1001B800B5072E08B401B4073608013E013E8A117E
:1001C80009238A11233A031DEA28EB28492905291E
:1001D800E630B2002930B3001A293B30B200233090
:1001E800B3001A296330B2001F30B3001A296530F2
:1001F800B2001A30B3001A298830B2001730B300A1
:100208001A293608013E8A1109238A11613A03190D
:10021800EC28023A0319F128073A0319F628023A9A
:100228000319FB28013A031900291A290230B607D5
:100238000318B70A0030B7076D296430B2002C30B4
:10024800B30067298B30B2002730B30067295330D9
:10025800B2002530B30067294130B2002130B30025
:100268006729A030B2001D30B3006729F630B2000C
:100278001B30B3006729EA30B2001830B300672991
:100288000030B2000030B30067293608013E8A11F9
:1002980009238A11613A03192129033A03192629E6
:1002A800013A03192B29073A03193029013A03198E
:1002B8003529033A03193A29013A03193F29173A0C
:1002C8000319442967290130B6070318B70A003013
:1002D800B7073608013E8A1109238A112E3A031DF1
:1002E8007629772985293408803EB4003508031813
:1002F800013E003EB5000130B6070318B70A0030CA
:10030800B7073608013E8A1109238A11343A031DBA
:100318008E298F299A290430B0000030B1000130AD
:10032800B6070318B70A0030B707D9293608013EBF
:100338008A1109238A11353A031DA329A429AF2953
:100348000530B0000030B1000130B6070318B70A15
:100358000030B707D9293608013E8A1109238A11C6
:10036800363A031DB829B929C4290630B00000302F
:10037800B1000130B6070318B70A0030B707D9290A
:100388003608013E8A1109238A11373A031DCD29FF
:10039800CE29D9290730B0000030B1000130B607A6
:1003A8000318B70A0030B707D9293608013E8A1161
:1003B80009238A112E3A031DE229E329F129340879
:1003C800803EB40035080318013E003EB5000130F8
:1003D800B6070318B70A0030B7073308A801A807FB
:1003E8003208A701A7073008F3007308A9003508E9
:1003F800AB01AB073408AA01AA078A11C9238A11DD
:10040800831203133708F4003608F3000130B607E7
:100418000318B70A7308013E8A1109238A112C3A76
:100428000319172A182A402876087504031D1D2A5F
:100438001E2A182A0310003003180130F700232A57
:040448008A111128DC
:10060000FE00FE1F082B83137E18831700080800C6
:100610000408FE0003308A007E088207003431346B
:100620003634643435342C34313436346434233441
:1006300035342C3431343634643435342C3431345C
:1006400036346434233435342C3431343634643421
:1006500035342C34313436346434233435342C344A
:1006600031343634643435342C34313436346434F3
:1006700035342C34313436346434233435342C342A
:1006800031343634653435342C34313436346634D0
:1006900035342C34313436346634233435342C3408
:1006A00031343634673435342C34383467343534A7
:1006B0002C34343470342C343834673435342C349E
:1006C000343470342C3438346134233435342C349D
:1006D000383470342C343834633436342C34383471
:1006E00070342C343834673435342C34343470342A
:1006F0002C343834673435342C34343470342C345E
:100700003834663435342C34383470342C3438343E
:1007100070342C343834673435342C3434347034F9
:100720002C34343470342C3438346134233435343C
:100730002C34383470342C343834633436342C341C
:10074000383470342C343834673435342C34343401
:1007500070342C34343470342C34383466343534BA
:100760002C34383470342C343834663423343534F3
:100770002C34383470342C343834613423343534E8
:100780002C343834673435342C34313464343534D3
:100790000034FA2B2808F2002708F100013003107A
:1007A000F20CF10CFF3E031DCF2B7108A70072085D
:1007B000A8000A2C2808F2002708F10002300310D4
:1007C000F20CF10CFF3E031DDF2B7108A70072082D
:1007D000A8000A2C2808F2002708F10004300310B2
:1007E000F20CF10CFF3E031DEF2B7108A7007208FD
:1007F000A8000A2C831203132908043A03190A2CAF
:10080000013A0319CA2B033A0319DA2B013A0319E7
:10081000EA2B0A2C76087504031D0F2C102C0A2CC9
:100820000310003003180130F700280827040319CB
:100830001A2C1B2C212CA709A8092708F900280825
:10084000F800FF30A3000030A4007F302A05A50087
:1008500000302B05A6008A1158248A1183138312B5
:1008600003132408F601F6072308F501F507AA1F6C
:100870003A2C3B2C4E2C7608F2007508F100013022
:100880000310F20CF10CFF3E031D402C750871079C
:10089000F50076080318760A7207F6002808270480
:1008A0000319532C542C572CF7010314F70D08008F
:1008B000003083120313A1000030A2002608250493
:1008C0000319632C642C9C2CA0010314A00D732C21
:1008D00001300310A50DA60DFF3E031D692C01304C
:1008E000F0007008A007A61F762C772C682C01302A
:1008F0000310A10DA20DFF3E031D782C2608240233
:10090000031D842C25082302031C872C882C8F2C84
:100910002508A3022608031CA403A4022114013005
:100920000310A60CA50CFF3E031D902C0130A00265
:10093000031D9B2C9C2C772C2208A401A4072108C2
:10094000A301A30708000B1DA62CA72CB62C7A0820
:100950008100760875040319AE2CAF2CB52C01303C
:10096000F5020030031CF603F6020B110C1CB92C27
:10097000BA2CC72C7708031DBE2CC12C0430870667
:10098000C22C071178088F0079088E000C103B08E4
:10099000FE003A088A003908840038088300FF0EF8
:1009A0007F0E0900D73083160313810083120313CF
:1009B0000B118B1690010314900D0C10831603136A
:1009C0000C140800F501F601F701F801F9018301A3
:0409D0008A1113284D
:00000001FF
