:040000008A11922FA0
:100F0600773083168F000C309900181283129817C9
:100F1600831698168A11BA278A118A110028831215
:100F260003135030B3006130B4007230B500613045
:100F3600B6006730B7002030B8006930B9007330AA
:100F4600BA002030BB004230BC004130BD00443006
:100F5600BE002030BF006230C0006F30C100793063
:100F6600C2002030C300C40183018A11832F2030C0
:100F760084003330F6000408F7001230F8007608D3
:100F8600840083130008F900F60A770884007908BC
:100F96008000F70AF80BC22F8312B2013208203EF6
:100FA60084008313000899000C1ED72F0A30F40022
:100FB600F501E6278A1183120313B20A11303202B1
:100FC60003180800D12FF001F10175087102031D05
:100FD600EE2F7408700203180800F201F301F20AFA
:100FE6000319F30A03307302E83003197202031C73
:0A0FF600F22FF00A0319F10AE82FA8
:00000001FF
