:040000008A11292F09
:100E520083018A11622F01308A1143278A112830B7
:100E6200F4000030F5008A118A278A1102308A11B3
:100E720043278A112830F4000030F5008A118A27AE
:100E82008A110800F600031000300318013083169F
:100E9200031385000310003003180130870083120A
:100EA2000313061286120617760887002830F4000C
:100EB2000030F5008A118A278A1183120313061360
:100EC2000800031000300318013083160313850055
:100ED200031000300318013087008A11B3278A11EA
:100EE20080308A1143278A112830F4000030F5003F
:100EF2008A118A278A11413083120313870028300E
:100F0200F4000030F5008A118A278A11872F8A118E
:100F120000280030F0000030F100A82F0030F2006D
:100F22000030F3000130F2070318F30A0030F30730
:100F320003307302E83003197202031CA12FA22F9F
:100F4200932F0130F0070318F10A0030F1077508FA
:100F52007102031DAE2F74087002031CB12FB22F51
:100F62008F2F08000310003003180130831603137B
:100F72008500031000300318013087008A112C27E6
:100F82008A112830F4000030F5008A118A278A116C
:100F920038308A1143278A112830F4000030F500D6
:100FA2008A118A278A1138308A1143278A112830F8
:100FB200F4000030F5008A118A278A110C308A1158
:100FC20043278A112830F4000030F5008A118A275D
:100FD2008A1103308A1143278A112830F400003025
:100FE200F5008A118A278A118A112C278A11283042
:0E0FF200F4000030F5008A118A278A110800E9
:00000001FF
