:040000008A11802EB3
:100D0000F901FA0183018A11852FF7008312031379
:100D1000061686120617770887000A308A112927D7
:100D20008A118312031306130800F70083120313BA
:100D30000612861277088700061701308A112927C4
:100D40008A11831203130613080001308A119526B5
:100D50008A1101308A1129278A1102308A119526B9
:100D60008A1101308A1129278A110800831203137E
:100D7000A000200899000C1EBE2EBF2EBB2EC03036
:100D80008A1195268A110A308A1129278A1183121D
:100D9000031320088A1185268A11080038308A1129
:100DA00095268A1101308A1129278A110C308A115F
:100DB00095268A1101308A1129278A118A11A526C0
:100DC0008A1101308A1129278A1108000310003086
:100DD00003180130831203179E000310003003181C
:100DE00001309F007730831603138F000C30990079
:100DF000181283120313981783160313981608000A
:100E0000FE00FE1F082F83137E18831700080800BA
:100E10000408FE0007308A007E08820700344C3444
:100E200043344434203469347334203452346534C8
:100E300061346434793400348312031318168C1E21
:100E4000222F232F1F2F1A08F0008C12181270085F
:100E50000800F2000030F3000030F400482F0030AA
:100E6000F5000030F6000130F5070318F60A0030EF
:100E7000F60703307602E83003197502031C412F90
:100E8000422F332F0130F3070318F40A0030F40720
:100E90007208F000F10171087402031D512F7008EF
:100EA0007302031C542F552F2F2F08008312031396
:100EB000A000061686120030A1000030A2007A2F92
:100EC000200821078A1109278A11870005308A1115
:100ED00029278A1183120313061701308A11292743
:100EE0008A118312031306130130A1070318A20A03
:100EF0000030A20724082202031D802F23082102AC
:100F0000031C832F842F602F080003100030031868
:100F10000130831203179E000310003003180130C4
:100F20009F0003100030031801308316031385005F
:100F3000031000300318013086000310003003183E
:100F4000013087008A11CE268A1180308A119526B9
:100F50008A1105308A1129278A110C308312031354
:100F6000A3000030A40001308A1156278A110530F1
:100F70008A1129278A11C0308A1195268A110530D5
:100F80008A1129278A118A11E6268A110310003056
:100F900003180130FA008A111C278A11F900790818
:100FA0008A11B6268A118A11A5268A1180308A11E3
:100FB00095268A1105308A1129278A1179088A1104
:100FC00085268A1110307A02031CE72FE82FF42FB0
:100FD000C0308A1195268A110A308A1129278A1170
:100FE00079088A1185268A110130F8007808FA07F5
:100FF00021307A02031CFD2FFE2FCB2F8A110028EF
:00000001FF
