:040000008A11AD2F85
:100D6400F70083120313061286127708870006170A
:100D740001308A11D3268A11831203130613080043
:100D840001308A11B2268A1101308A11D3268A11C0
:100D940002308A11B2268A1101308A11D3268A11AF
:100DA4000800F4000030F2000030F300F22E0030AE
:100DB400F5000030F6000130F5070318F60A00309C
:100DC400F60703307602E83003197502031CEB2E94
:100DD400EC2EDD2E0130F2070318F30A0030F3077E
:100DE4007408F000F10171087302031DFB2E7008F2
:100DF4007202031CFE2EFF2ED92E0800FE00FE1FD9
:100E0400082F83137E188317000808000408FE00C7
:100E140007308A007E088207003420344834613465
:100E240070347034793420344E346534773420345B
:100E340059346534613472342034003447346F34A7
:100E44006434723465346A3420344C346F3463341B
:100E54006B347334003441346D3469347434203465
:100E6400543461346E34643465346C34003457342F
:100E740069347334683465347334203459346F34CA
:100E84007534003403100030031801308312031743
:100E94009E0003100030031801309F00031000303F
:100EA4000318013083160313850003100030031860
:100EB40001308600031000300318013087008312CC
:100EC400031306128612061338308A11B2268A11C9
:100ED40001308A11D3268A110C308A11B2268A1164
:100EE40001308A11D3268A118A11C2268A1101304F
:100EF4008A11D3268A110800F700831203130616F9
:100F040086120030F8000030F900A22F7708780725
:100F14008A1109278A11870005308A11D3268A117C
:100F240083120313061701308A11D3268A11831200
:100F3400031306130130F8070318F90A0030F90700
:100F44007B087902031DA82F7A087802031CAB2FB3
:0C0F5400AC2F882F080083018A11B82FF1
:100F70008A1144278A1182308A11B2268A110B30D5
:100F8000FA000030FB001F308A117E278A110130E1
:100F90008A11D3268A11C1308A11B2268A110C30E7
:100FA000FA000030FB0012308A117E278A110A30C5
:100FB0008A11D3268A118A11C2268A1182308A1197
:100FC000B2268A110A30FA000030FB002B308A1159
:100FD0007E278A1101308A11D3268A11C0308A11E6
:100FE000B2268A111030FA000030FB0001308A115D
:100FF0007E278A110A308A11D3268A118A11002885
:00000001FF
