:02000000792E57
:100CF200FA018313203084002D3081268301962E41
:100D020064008001840A0406031900340406822E5A
:100D1200831200000000000000000000000000003C
:100D220000000000FA0B8A2E08006E27D226003A35
:100D320003199C2E9D2EA12E831203130711972EA9
:100D4200831203130715972E0028F10003100030B9
:100D520003180130F20083160313051183120313E3
:100D620005110630FA00711CB72EB82EBE2E0000F7
:100D72008316031305158926C22E892683160313AB
:100D820005157108F0000310700CF1000130F0003D
:100D92007008F20708307202031CD02ED12EAC2E3E
:100DA2000800392783120313AD0003100030031823
:100DB2000130A0002D08031DDF2E022F3330A6269E
:100DC200073083120313AE000427F90083120313C2
:100DD2002E08203E8400790883138000FF30F9003A
:100DE2007908AE07AE1FF62EF72EE52E2030A62785
:100DF200003A0319FD2EFE2E002F0130032F003082
:100E0200032F2D0808000310003003180130F200F0
:100E1200831603130511831203130511000000004A
:100E2200831603130515000000008312031305083F
:100E3200F100711D1D2F1E2F252F7308F0000310C6
:100E4200700C8038F3002A2F7308F0000310700C26
:100E5200F3000630FA0089260130F0007008F2072C
:100E620008307202031C362F372F092F730808002F
:100E72008316031305118312031305158316031337
:100E820005118312031305112A30FA0089268316ED
:100E9200031305118312031305150630FA00892680
:100EA20083160313051583120313051D592F5A2F99
:100EB200602F0310003003180130F000632FF0019F
:100EC2000314F00D3230FA0089268316031305113C
:100ED20083120313051570080800831603130F12FB
:100EE2000F148F160F1703100030031801309000F3
:100EF2000310003003180130831203179900031006
:100F02000030031801309E00031000300318013036
:100F12009F0083160313071124309500A03083121B
:100F2200031795008316031381130310003003186F
:100F32000130831603178C008830831203138B0051
:100F420024308316031396000800F40003100030C7
:100F520003180130F6000310003003180130F300CB
:100F62000830F80078087407840083130008F5003D
:100F72007508F0007008F304031000300318013004
:100F8200F7007508F000770AC82F0310F00CFF3E37
:100F9200031DC62F70080139F20076080139F100ED
:100FA2000310F60C720871060319D82FD92FDD2F02
:100FB2008C30F0007008F6060130F0007008F70778
:100FC20008307702031CE62FE72FC22F0130F80208
:100FD200023078020318EE2FEF2FB32F740884002B
:100FE200831300087606031DF72FF82FFE2F7308D0
:0E0FF200031DFC2FFE2F0130FF2F00300800E2
:00000001FF
