:040000008A114E2FE4
:100E9C00F601F70183018A11C32F8312031307167E
:100EAC000A30F4000030F5008A116F278A11831282
:100EBC000313071208008312031387156430F40020
:100ECC000030F5008A116F278A11831203138711E2
:100EDC0008000030F0000030F1008D2F0030F200DF
:100EEC000030F3000130F2070318F30A0030F30767
:100EFC0000307302643003197202031C862F872F93
:100F0C00782F0130F0070318F10A0030F10775084B
:100F1C007102031D932F74087002031C962F972FD8
:100F2C00742F08000030F6000030F7000030770214
:100F3C00083003197602031CA42FA52FA62FC22F4D
:100F4C008312031387128A1153278A110230F4007B
:100F5C000030F5008A116F278A110130F60703184B
:100F6C00F70A0030F70700307702083003197602D1
:100F7C00031CC12FC22FA62F08000310003003182A
:100F8C000130831203179E00031000300318013048
:100F9C009F000310003003180130831603138700E1
:100FAC008A1198278A118A1161278A110030F6005C
:100FBC000030F70000307702043003197602031C6E
:100FCC00E82FE92FEA2FD92F8312031387168A11E2
:100FDC0053278A110230F4000030F5008A116F2774
:100FEC008A110130F6070318F70A0030F707E02FD3
:040FFC008A1100282E
:00000001FF
