:020000004C2F83
:100E98008301992FF7000310003003180130F80080
:100EA800692F8312031306170530F4000030F5008C
:100EB80070278312031306130530F4000030F50081
:100EC80070270130F6007608F80777087802031CC7
:100ED8006E2F6F2F552F08000030F0000030F10002
:100EE8008E2F0030F2000030F3000130F2070318B3
:100EF800F30A0030F30703307302E8300319720273
:100F0800031C872F882F792F0130F0070318F10A67
:100F18000030F10775087102031D942F74087002E0
:100F2800031C972F982F752F080003100030031803
:100F38000130831203179E0003100030031801309C
:100F48009F008316031307138713061686160613C6
:100F5800831203130613061EB22FB32FB72F861A58
:100F6800B62FB72FAF2F061ABA2FBB2FBF2F861A4F
:100F7800BE2FBF2FB72F061AC22FC32FC72F861E0B
:100F8800C62FC72FBF2F061ECA2FCB2FAF2F861AEB
:100F9800CE2FCF2FAF2F02304E2783120313071304
:100FA80087171430F4000030F500702783120313FC
:100FB800071387130530F4000030F50070278312FB
:100FC8000313071787131430F4000030F500702757
:100FD80083120313071787170530F4000030F50054
:100FE800702783120313061EFA2FFB2FFF2F861E6E
:080FF800FE2FFF2FF52F00284A
:00000001FF
