:020000001028C6
:10000800FF00030883120313A0000408A1000A08D4
:10001800A2007E08A300A428C128831603130F1288
:100028000F148F160F1703100030031801309000BB
:1000380003100030031801308312031799000310CE
:100048000030031801309E000310003003180130FF
:100058009F008316031387108312031387108316D8
:100068000313071505160710051583120313071048
:100078008316031307138713031000300318013086
:10008800831603178C00080011206430F400003038
:10009800F5007B20831203130714E830F4000330C3
:1000A800F5007B20831203138710071060282C307B
:1000B800F4000130F5007B2083120313071D652827
:1000C80066285B28051A69286A2866287128F4308A
:1000D800F4000130F5007B20BA20831203130719BE
:1000E800762877286B28871007106028102800309A
:1000F800F0000030F10099280030F2000030F300E1
:100108000130F2070318F30A0030F30700307302D6
:10011800323003197202031C922893288428013074
:10012800F0070318F10A0030F10775087102031D82
:100138009F2874087002031CA228A328802808009E
:1001480005080B1003100030031801308316031341
:100158009600831203132308FE0022088A00210850
:10016800840020088300FF0E7F0E090002308312EE
:1001780003138706013087060800F601F70183019B
:02018800482805
:02400E009430EC
:00000001FF
