:020000000E28C8
:10000800FF00030883120313C8000A08C9007E080A
:10001800CA00902CC62C00345E34BC34E2346134FF
:100028003F34DD348334C2349C347E342034A334EA
:10003800FD341F3441349D34C33421347F34FC34BF
:10004800A23440341E345F340134E334BD343E34CA
:1000580060348234DC3423347D349F34C1344234F8
:100068001C34FE34A034E134BF345D3403348034AE
:10007800DE343C346234BE34E03402345C34DF3481
:10008800813463343D347C342234C0349E341D348E
:100098004334A134FF3446341834FA34A4342734B2
:1000A80079349B34C5348434DA3438346634E534EE
:1000B800BB3459340734DB34853467343934BA34C3
:1000C800E4340634583419344734A534FB347834CE
:1000D8002634C4349A3465343B34D93487340434F0
:1000E8005A34B834E634A734F9341B344534C634AA
:1000F80098347A342434F834A63444341A3499348D
:10010800C73425347B343A3464348634D8345B3489
:100118000534E734B9348C34D23430346E34ED34A9
:10012800B33451340F344E341034F234AC342F34E9
:1001380071349334CD3411344F34AD34F3347034D6
:100148002E34CC349234D3348D346F343134B234C9
:10015800EC340E345034AF34F13413344D34CE34DF
:10016800903472342C346D343334D1348F340C34AD
:100178005234B034EE3432346C348E34D034533498
:100188000D34EF34B134F034AE344C34123491348D
:10019800CF342D347334CA34943476342834AB34A1
:1001A800F5341734493408345634B434EA346934ED
:1001B8003734D5348B3457340934EB34B5343634CA
:1001C80068348A34D4349534CB3429347734F434CD
:1001D800AA3448341634E934B73455340B348834E7
:1001E800D63434346A342B3475349734C9344A34A9
:1001F8001434F634A83474342A34C8349634153494
:100208004B34A934F734B634E8340A345434D73488
:1002180089346B343534C201C001C00A0130E2218F
:100228007024FB0124307B0203187729BC23003A91
:1002380003196F292824FA00023A03196129C20117
:10024800C20AC301C30A2D29C30A1730430203187F
:100258003E29430883232430F1002D304124C10076
:1002680041080319282943089E24C0010230E221CD
:10027800FB0170244308173A031D6F29C301C30A01
:100288004308832324309D220038031D5329430843
:10029800C122C0010130E221FB0170245829C30AA0
:1002A80017304302031C44294308173A031D6F29DA
:1002B800C001C00A0330E2216F29C208031D6B295F
:1002C8000030D823C001C00A0330E2217729C001D9
:1002D8000130E22177290430BA000130BB00F42351
:1002E800B924FB0A16293630FB00FB0A0800BC2398
:1002F800003A031908002824FA007A080319C429C7
:100308000714C0010130E2214922FB01C601A20104
:10031800A20A98291E30BA00BB01F4238710AA301C
:10032800BA00BB01F423FB0A36307B020318BA2952
:1003380079080319A0293025C608031DAD297A08B4
:10034800023A031DAD2938250038031DAD29C60121
:10035800C60ABC23003A03198E29460803198E29B8
:100368002824FA00023A031D8E290F21871007104E
:100378008224071138250038031DBE29F80108001A
:100388000330F80A7802031CCC29F8014523DD293B
:10039800C401C50120257D30BA00BB01F423C40A7D
:1003A8000319C50A00304502043003194402031C2E
:1003B800CE293825003803190800DD29BC00BD0105
:1003C800BE0140080319ED299030BD000130BE0080
:1003D800F0296430BD00BE018710BF013C08F00061
:1003E800F1010310700DF200710DF3007208FF3E69
:1003F800F40073080318013EFF3EF500803A803C84
:10040800031D082A74083F020318152A02308312B4
:10041800031387063E08BB003D08BA00F423BF0A51
:10042800F229831203138710080083160F120F1482
:100438008F160F1790018312031799019E019F01D0
:1004480083160313871083128710831685162430AA
:1004580095008712831287128316051681130710D9
:1004680007110515831207108316071387138312C4
:1004780007138713831603178C018830831203131D
:100488008B002430831696000800F001851AF00AC4
:100498000A30BA00BB01F423851AF00A0717871738
:1004A8000A30BA00BB01F42307178713C330BA0018
:1004B800BB01F423851EF00A0A30BA00BB01F423FD
:1004C800851EF00AC330BA00BB01F4230713871353
:1004D8007008043A031D732AF901F90A0800F901A2
:1004E8000800FF30A000A1010B25790803198E2A06
:1004F80000307702033003197602F901031C862ABB
:10050800F90A962AFF300313A000A101F60A03197D
:10051800F70A962A770876040319962A0130F60214
:10052800031CF703A0230A3083120313BA00BB018C
:10053800F42BB900B701B601B80184008313000891
:10054800B60439088400000837060F3E84000030DE
:100558000318013E0025B700B90AB80A0730380267
:100568003908840083130008031CA42A3706031DD6
:1005780000343608031D01340034F0007E308B054A
:10058800F00DF00D700DF839F000F1017008A000C1
:10059800A101F00A71082D3E840083130008F600BB
:1005A800F701A0230A3083120313BA00BB01F42316
:1005B800F10A08307102031CCA2A8B170800831637
:1005C80005118312051583160511831205112A30AA
:1005D800A300AC2483160511831205150630A30069
:1005E800AC24831605158312F001051DF00A32307C
:1005F800A300AC24831605118312051570080800A2
:10060800C1000030832324309D220038031D0800D8
:10061800C108031D132BC001C00A0330E221BC230B
:10062800003A03191D2B0030C122C0010330E2211A
:10063800702C851A232BC001C00A0330E22116252D
:10064800132B19228312C7016430BA00BB01F423AB
:10065800C0010230E2213C2BC001C00A0330E22174
:10066800FF30A000A101F601F701A0230130D82333
:1006780047080423C701C70A851E302B7B2116258E
:10068800402B87140714FB01F0307B020318622B00
:10069800A430BA000130BB00F423FB0ABC23003AA3
:1006A8000319482B2824FA007A080319482B8710C5
:1006B8000710F430BA000130BB00F423871007108C
:1006C8000800B80183160511831205110000000007
:1006D800831605150000000083120508B600361DB4
:1006E800772B0314782B0310B70C0630A300AC2427
:1006F800B80A08303802031C662B37080800F000D7
:100708007E308B05F00DF00D700DF839F000F10119
:1007180070080313A000A101F00A0B257108243EFC
:100728008400760883138000F10A08307102031CE4
:100738008C2B03138B1708000313200803178D0055
:1007480076088C0083168C010C15831203138B1307
:100758008B1BAC2B5530831603178D00AA308D00E8
:100768008C14831203138B17831603170C110800BC
:10077800E322BA003A080319D62B33300E24831229
:10078800BB013B082D3E8400652383138000BB0A10
:1007980008303B02031CC52B2D309D22003A031D57
:1007A800013400343A08080083120313BC00BD0169
:1007B8003D082D3E8400553083138000BD0A083063
:1007C8003D02031CDC2BBD01BD0A3C08031DBD0115
:1007D80017303D02031808003D085924BD0AEC2BC8
:1007E800B601B7013B083702031DFC2B3A08360255
:1007F80003180800B801B901B80A0319B90A00308A
:100808003902323003193802031C002CB60A0319C6
:10081800B70AF62BF000F1018316051183120511B2
:100828000630A300701C1D2C000083160515AC248F
:10083800202CAC24831605150310F00CF10A08309F
:10084800710203180800102CB9012F2CB90A1730AF
:1008580039020318392C390883232430F1002D304C
:100868004124B800380803192A2CB908031902349E
:1008780017303902031C01340034B600B70171087F
:10088800F10A84000008F00036088400B60A00085F
:100898007006031D542CB70A08303702031C432C7A
:1008A8003708083A031901340034F0007E308B050C
:1008B800F00DF00D700DF839F000A000A101F00A5C
:1008C8002D08F600F701A0230A3083120313BA009B
:1008D800BB01F4238B1708003825003803190800DA
:1008E800B601B701B60A0319B70A34303702BC306B
:1008F80003193602031C762CB924702C752279084A
:10090800031D0800071387179030BA000130BB0099
:10091800F42307138713080005080B1083169601A4
:1009280083124A08FE0049088A0048088300FF0E1F
:100938007F0E0900BC00BD013D082D3E84005530E6
:100948008000BD0A08303D02031CA02C3C08592C2D
:1009580083120000000000000000000000000000FA
:1009680000000000A30BAD2C0800071CBD2C0710CD
:100978000800A208031DC42CA201A20A071408003B
:10098800A2010800763084007C30282583132030AB
:0A0998008400363028258301252B4A
:100A0000FE00FE1F082D83137E18831700080800C0
:100A10008A0004088200200803178D0083168C01C9
:100A20000C1483120C08F600F70108008316031358
:100A300005152430960063005030BA00BB01F42B3A
:100A4000071D252D871007110800871407150800BA
:100A500064008001840A0406031900340406292D69
:100A6000071C352D8710071008008714071408008D
:020A7000E32A77
:02400E009430EC
:00000001FF
