:040000008A11BE2F74
:100F7C0083018A11DF2FF400F201F3017408F000F1
:100F8C00F10171087302031DCD2F70087202031852
:100F9C000800F501F601F50A0319F60A033076028A
:100FAC00E83003197502031CD12FF20A0319F30A56
:100FBC00C42F83160612861277100130F7067718A5
:100FCC00EB2F831203130616EE2F83120313061254
:100FDC000A308A11C1278A11771CF82F8312031348
:100FEC008616FB2F8312031386120A308A11C1272F
:040FFC008A11E32F44
:00000001FF
